:100000008A1111288A11FA2BFE00030EF50004084C
:10001000F6000A08F700831203137F08F8008A111C
:10002000092C8A1113288A11A2258A11FC008A1131
:10003000A3258A11FD008313A0308400C8308A11E3
:1000400096258A112030840050308A119625F901B6
:10005000FA01FB0183018A11D42BFF0000308A00D2
:100060007F08820732288A11F12C8A119C2B8A1171
:10007000D62C8A11752D8A118C2D8A11852983120F
:100080000313E90083120313390803199F2883120D
:10009000031339088A115A238A1183120313EA00C1
:1000A0006A08EC004D30EA006A08D4006C08EB00E6
:1000B0006B07203E84008A1139248A118A114B2251
:1000C0008A11003A031D9128831203136C08183E0D
:1000D00084008A1139248A11FF3AEA006A08B905B6
:1000E00091284D08D4004E08D5004F08D6008A113B
:1000F00085218A118312031354088A284D08D000E1
:100100004E08D1004F08D2008A118C258A11831223
:1001100003135008031942280230EA006A08E80075
:10012000AE28831203136C08003A03197128013AB0
:1001300003197E28422842288A11E8218A118A114F
:1001400081258A11003A031D9C288A113D258A11B8
:100150008A11D6248A1183120313422800308A00A0
:100160006908820083160313141C0800831203130A
:100170001308F0007008F1000C29FF3093008A1179
:100180009E258A11013A031DE9288A11A4258A11A6
:10019000F0007008F9003F307106031DD828790877
:1001A000840083130008F0007008FC00790AE62838
:1001B000C3307106031DE9287908023E84008313C9
:1001C0000008F0007008FC007908033E8400000875
:1001D000EE28FF30F0007008FC00FF30F0007008DF
:1001E000FD007C30F000700883120313AA00AB01FD
:1001F000AB0A1A292A088400000893000230052956
:100200002A0A8400000893000330F0007008AB0055
:100210001A299301AB011A292B08003A0319BD28AA
:10022000013A0319FA28033A03190029013A03197C
:1002300009291A298C110800831203131A08F200E5
:100240007208F30073297E307306031D08008A11BB
:10025000662583120313B301B30A08007308031D54
:1002600036290230F2007208B3000800B30108001A
:100270007308F2007208FA000A307A02031C42295D
:10028000B3010800FB01BA010430F2007208B300A8
:10029000080009307B0203185A297308F2007B0812
:1002A000443E84007208831380000130F20072081B
:1002B000FB0765297B087A06031D6429FB010530CD
:1002C000F2007208B3006529B3017308F2007208E6
:1002D000BA0708003A0A031D71290130F2007208BA
:1002E000AE00B30108003308003A03192329013A8C
:1002F00003192E29033A03193829063A0319492903
:10030000013A03196A298429080083120313DB01C7
:10031000D92981304406031DE1294808063903190B
:10032000E129B2014808D7005708DE004808D70085
:100330005708DF005F08D700D8015E08D900DA014E
:100340005908DA00D90157085904A30058085A047B
:10035000A400E001043060020318C2296008053ED1
:10036000443E840083130008D70060083B3E8400AD
:10037000570880000130D7005708E00704306002BA
:10038000031CAE290130D7005708B2004C30D00012
:100390000030D10000308A1190248A118312031397
:1003A000AD01AD0AE12955085604031DE129AD014F
:1003B000E1295408043A0319D329033A0319892976
:1003C000E1295B08D4005C08D5005D08D600080070
:1003D000013083120313A5070318A60A0030A607ED
:1003E0003708031908003708E5006508B600360825
:1003F0008A115A238A1183120313E5006508B50098
:100400003508E5006507A03E8400013083138002B3
:10041000840F0030031C8003800284030008E60080
:10042000840A0008E70066086704031D3D2A0430BB
:10043000E5006508A0003508E500E6016508A100B3
:100440006608A2002008E2002108E3002208E40078
:100450003508103E84008A1139248A118A112D2012
:100460008A11831203133508183E84008A11392437
:100470008A11FF3AE5006508B7053508183E840083
:100480008A1139248A11FF3AE5006508B605360855
:1004900003190800F72983120313DC005C08D50058
:1004A0005508DD005D08023E84008313000803192F
:1004B000A32A0B08D5005508DA008B130330D500AA
:1004C0005508D0005D0A84000008013E8A115325BA
:1004D0008A11831203135C07D60056088400831325
:1004E0000008D700840A0008D800840A0008D90050
:1004F0005408840057088000840A58088000840A41
:10050000590880000130D5005D0A84005508800735
:100510005D0884000008D5005D0A84000008D6004C
:1005200055085602031C972A5D0A840080015D0865
:10053000023E8400013080020008D5005508DB002F
:100540005A088B00AC2A540884008001540A8400A5
:100550008001840A8001DB015B0808008A11B8244D
:100560008A1183120313E901023069020318042B74
:100570006908E7006707243E84008A1139248A113C
:10058000003A0319CD2A0314690D243E84008A1110
:1005900039248A11003A031DCF2A033008000314BE
:1005A000690D203E84008A1139248A11E70067080A
:1005B000D0006908E8006807203E84008A113924C9
:1005C0008A118A1126258A11831203136908E7000C
:1005D0006708E2006908E8006807243E84008A1181
:1005E00039248A118A112D208A11013A0319FA2A15
:1005F00005300800013083120313E7006708E9079C
:1006000002306902031CB82A003008008312031369
:10061000DB005B08D7005708DC005C08840083130C
:100620000008D7005C08023E84000008D800570884
:1006300058020318582B5C08023E84000008D700BB
:100640005C0A840000085707D8005808DA005C08E4
:10065000840000085A02031C312B5C088400000847
:10066000DA020B08D7005708D9008B130330D700E4
:100670005708D0005A08013E8A11532583120313EC
:100680005B07D80058088400540883138000840A4C
:1006900055088000840A560880000130D7005C08A5
:1006A000023E84005708800759088B00013008007B
:1006B0000030080083120313D3008030D0005008AC
:1006C000D400D601D60AD61B9A2B5308D000560860
:1006D000D10001300310D10DFF3E031D6A2B031022
:1006E000510D013E752B0310D00CFF3E031D732BE3
:1006F00050080F39D2005208D50055080319942B21
:100700005608D00002300310D00DFF3E031D832B8E
:100710005508FF3E013E84008A1139248A11500792
:10072000D1005108D4009A2BFF30D0005008D607D2
:10073000D61F652B54080800831203136208E300D8
:100740006308AC008B1383160313940187130616FA
:1007500006170717F83083120313E30063088312A8
:1007600003179F0583120313930134309400AB01E8
:10077000831603138C150B178B1702308312031388
:10078000E3006308E4006408DD006508DE00660835
:10079000DF002C088A1167248A11013A031DD22B2D
:1007A00001300800003008007030831603138F00FA
:1007B0008A110C258A1183160313871183120317DC
:1007C0009E138312031387118316031307128312D8
:1007D0000313071201308A11AE228A118312031308
:1007E000ED006D08EE0007166E08031D002C0230A8
:1007F0008A113F28831203136808ED006D08EE008C
:100800006E08033A0319082C063A0319082C082C21
:10081000082C87168C1D132C831603138C1D132C88
:100820008A11B2208A11831203138C1E1E2C831688
:1008300003138C1E1E2C8A111C218A110B1D2B2CBC
:100840000B110130F400740883120313B807013050
:10085000F400740887068312031387127808FF00D8
:1008600077088A0076088400750E8300FE0E7E0EDF
:10087000090004308A000408840A82070034003426
:1008800001340134023402340234023403340334B8
:10089000033403340334033403340334073400349F
:1008A00000340034003400340034003401340234A5
:1008B000043408341034203440348034BC340434DC
:1008C000B034043401340B34033409340534831256
:1008D0000313E1000230610203188E2C5D08D4007E
:1008E0005E08D5005F08D6006108E0006007203E82
:1008F00084008A1139248A118A1106238A11013A47
:10090000031D8E2C831203136108183E84008A1184
:100910003924E0006008B904013008000030080004
:1009200083120313D300083053020318080053083E
:10093000103E84008A1139248A11003A03190800F4
:1009400050085104031908005308D2005207A03E72
:100950008400500883138000840A510880005308E3
:10096000183E84008A113924D2005208B7040800C6
:10097000831603130710831203171E128312031327
:1009800007108316031387128312031387128B1326
:10099000831603138112811101148114011583122E
:1009A000031381010B118B168B170800831203139D
:1009B0002E080319EF2C0730E2006208E300E4017F
:1009C000E5016308DD006408DE006508DF00003033
:1009D0008A11672483120313AE010130080000302E
:1009E0000800831203136208E3006308B4000230B6
:1009F000E3006308E4006408DD006508DE006608C3
:100A0000DF0034088A1167248A11013A031D0A2D78
:100A100001300800003008008B1381308316031367
:100A200099009A0118159B11181283120313981735
:100A3000831603130C128C160B17981683120313CC
:100A40001816831203179F118B17080083120313C4
:100A5000D2005208D1005108D3005008FF3ED10007
:100A600053088400510883138000530A84008001D6
:100A70005308023E84008001080083120313D10151
:100A80000030071B0130D2005208270603194E2DF3
:100A9000520803194E2DAB01D101D10A5208D000E2
:100AA0005008A700080083120313D300D201531C7F
:100AB0005D2D5008D1005108D2070310D00D03104E
:100AC000D30C5308031D572D52080800F1010930BB
:100AD0007102031808007108443E840083138001EA
:100AE0000130F0007008F107672D831203136208CC
:100AF000DD006308DE006408DF0034088A11672423
:100B0000080083120313380803198A2D0130B80234
:100B1000013008000030080083120313D30153088A
:100B2000D0005408D1005508D200080064008001AC
:100B3000840A0406031900340406972D8312031354
:0C0B400032080800FF34FF343B3008008E
:02400E00E2F0DE
:00000001FF
